:020000040800F2
:10000000C80A0020890100086F110008290E0008A5
:100010006D1100080B030008C9150008000000005E
:100020000000000000000000000000006315000850
:100030000D030008000000006115000865150008A8
:10004000A3010008A3010008A3010008A301000800
:10005000A3010008A3010008A3010008A3010008F0
:10006000A3010008A3010008A3010008A3010008E0
:10007000A3010008A3010008A3010008A3010008D0
:10008000A3010008A3010008A3010008A3010008C0
:10009000A3010008A3010008A3010008A3010008B0
:1000A000A3010008A3010008A3010008A3010008A0
:1000B000A3010008A3010008A3010008A301000890
:1000C000A3010008A3010008A3010008A301000880
:1000D000A3010008A3010008A3010008A301000870
:1000E000A3010008A3010008A301000800F002F822
:1000F00000F03AF80AA090E8000C82448344AAF188
:100100000107DA4501D100F02FF8AFF2090EBAE885
:100110000F0013F0010F18BFFB1A43F0010318473B
:10012000281C0000481C0000103A24BF78C878C181
:10013000FAD8520724BF30C830C144BF04680C60ED
:10014000704700000023002400250026103A28BF35
:1001500078C1FBD8520728BF30C148BF0B60704739
:100160001FB51FBD10B510BD00F099F81146FFF77F
:10017000F7FF01F03BFA00F0B7F803B4FFF7F2FF26
:1001800003BC00F0BBF8000009488047094800475D
:10019000FEE7FEE7FEE7FEE7FEE7FEE7FEE7FEE737
:1001A000FEE7FEE704480549054A064B7047000094
:1001B000C7150008ED000008C8040020C80A002088
:1001C000C8060020C80600204FF0000200B5134604
:1001D00094469646203922BFA0E80C50A0E80C5067
:1001E000B1F12001BFF4F7AF090728BFA0E80C5018
:1001F00048BF0CC05DF804EB890028BF40F8042B11
:1002000008BF704748BF20F8022B11F0804F18BF7D
:1002100000F8012B704700004FF0013C50F8042B10
:1002200051F8043B9A4221D1A2EB0C03934313EA09
:10023000CC1317D150F8042B51F8043B9A4215D136
:10024000A2EB0C03934313EACC130BD150F8042B0D
:1002500051F8043B9A4209D1A2EB0C03934313EAF1
:10026000CC13DBD04FF00000704700BFD01A01BAAA
:10027000B1FA81F101F0180122FA01F0CB40C1F18D
:100280002001DBB2C0B2C01A2CFA01F3D11A91439B
:1002900011EAC311E6D17047704770477047754641
:1002A00000F028F8AE4605006946534620F00700E6
:1002B000854618B020B5FFF775FFBDE820404FF028
:1002C00000064FF000074FF000084FF0000B21F040
:1002D0000701AC46ACE8C009ACE8C009ACE8C0090D
:1002E000ACE8C0098D4670470446AFF30080204655
:1002F000FFF743FF004870476404002001491820BD
:10030000ABBEFEE7260002007047FEE7704772B6FC
:10031000FEE7000070B5044600F0FEF80546601CDC
:1003200002D004480078044400F0F6F8401BA042D4
:10033000FAD370BD000000202DE9F84FDFF8B89126
:100340000024A9F1040B23460F2709F1040AABF19D
:10035000040EC9E00125A5402A40AA427DD1674E7E
:10036000D1F804C0ACEB0608B44532D014DCBCF1C3
:10037000030F3AD009DCBCF1000F2AD0BCF1010F09
:100380001CD0BCF1020F31D11DE0BCF1110F17D010
:10039000BCF1120F2AD119E0B8F5881F19D006DC7C
:1003A000B8F5803F15D0B8F5801F1FD111E0B8F522
:1003B000001F0ED0B8F5041F18D10AE0CB6815E075
:1003C000CB681B1D12E0CB6808330FE0CB680C3301
:1003D0000CE08B682BB1012B4FF0080303D0456173
:1003E00004E0042302E0056100E00023FF2A01D8B5
:1003F000064601E000F104064FEA840501D9A5F1A3
:100400002005D6F8008007FA05FC28EA0C0803FA54
:1004100005F548EA0508C6F800804D68ED0062D58C
:10042000374DAE6946F00106AE61AD6924F00306B2
:1004300005F001050095334D06EB050CDCF808507E
:10044000A607360F07FA06F825EA0805DFF8B88090
:10045000404503D14FF0000817E044E0DFF8AC80DE
:10046000404502D14FF001080FE0DFF8A48040457D
:1004700002D14FF0020808E0DFF89880404502D131
:100480004FF0030801E04FF0040808FA06F848EAC4
:100490000508CCF808804D68D9F80060ED024D469B
:1004A00001D5164300E096432E604D68DAF80060EF
:1004B000AD02554601D5164300E096432E604D68C7
:1004C000DBF80060AD035D4601D5164300E09643BE
:1004D0002E604D68DEF80060ED03754601D51643C9
:1004E00000E096432E60641C0D682A46E5407FF4C8
:1004F00031AFBDE8F88F0000080401400000111082
:10050000001002400000014000080140000C0140C2
:10051000001001400014014001488068704700004D
:100520000000002070B5040025D094F83D0000259F
:1005300020B984F83C50204600F04EF9242084F87D
:100540003D002068016821F0010101602068016818
:1005500041F4004101602068016821F4004101601C
:1005600000F088FA4D4A6168914201D84C4900E098
:100570004C49884201D2012070BD4B492368B0FB31
:10058000F1F15E6826F03F060E435E6063689342B9
:1005900006D94FF4967359434FF47A73B1FBF3F1D4
:1005A0002368491C1E6A26F03F06314319626168C0
:1005B000914210D84900401EB0FBF1F2521CC2F328
:1005C0000B02042A01D2042022E0B0FBF1F0401C0F
:1005D000C0F30B001CE0A268F2B301EBC10303EB14
:1005E0000116431EB3FBF6F35B1C43F480431B056B
:1005F00049D092B301EBC10202EB0111401EB0FBE6
:10060000F1F0401CC0F30B0040F4804040F4004087
:100610002168CA694CF6FF739A431043C861D4E954
:10062000071001432068026822F0C00211430160F4
:10063000D4E9030101432068826848F2FF339A43FA
:1006400011438160D4E9050108432168CA6822F09A
:10065000FF021043C86001E00EE016E02068016868
:1006600041F0010101602564202084F83D002563EC
:1006700084F83E50002070BD01EB4106431EB3FBE1
:10068000F6F35B1CB3E70120C2E701EB4101401E1A
:10069000B0FBF1F0401CC0F30B00B7E7A0860100EF
:1006A00080841E0000093D0040420F002DE9F84FF4
:1006B0001F4690468A460446DDF82890FFF72CFF37
:1006C000054694F83D0020287FD119230122404996
:1006D0002046009500F03AFC002876D194F83C00C2
:1006E000012872D0012084F83C0020680168C90705
:1006F00003D1016841F0010101602068016821F423
:1007000000610160212084F83D00102084F83E0043
:1007100000262664C4F824806785608D20852D48D6
:10072000E0622B464A465146204600F095FB90B9C0
:10073000206841698069009036E02A464946204693
:1007400000F0AAFC50B1206C042804D12068016894
:1007500041F4007101600120BDE8F88F606A2168F2
:1007600000780861606A401C6062618D491E618585
:10077000218D491E89B2218522685369DB435B07BD
:100780000BD451B100781061606A401C6062608DCA
:10079000401E6085208D401E20852A464946204601
:1007A00000F0A8FB0028CED1208D0028C5D154F838
:1007B0003D0B016841F400710160202004F81E091E
:1007C000E67766770020C7E7FFE70220C4E700006E
:1007D000020010000000FFFF10B586B0002100915C
:1007E00001910291039100680F4988421AD10F4C80
:1007F000A06940F00800A061A069694600F0080007
:100800000490C0200090122001900320039008481B
:10081000FFF792FDE06940F40010E061E06900F448
:100820000010049006B010BD0054004000100240BB
:10083000000C0140024881680278114481607047D1
:1008400000000020074810B5016841F01001016068
:10085000032000F067F80F2000F006F800F024F8FD
:10086000002010BD0020024070B50D4D04464FF42D
:100870007A712878B1FBF0F00A490968B1FBF0F011
:1008800000F0BEFA48B9102C07D200222146501EB3
:1008900000F028F800206C6070BD012070BD0000E1
:1008A000000000200C0000200C4808B5816941F0D0
:1008B00001018161816901F001010091C16941F08B
:1008C0008051C161C06900F08050009004484168C7
:1008D00021F0E06141F00071416008BD001002406C
:1008E00000000140F0B40E4B1B680C46C3F302231A
:1008F000C3F10705042D00D90425191D072901D2CC
:10090000002300E0DB1E012606FA05F1491E214006
:1009100099409E40761E16403143F0BC00F055BE13
:100920000CED00E0064900F0070208684FF6FF03EF
:10093000184040EA0220034A104308607047000054
:100940000CED00E00000FA052DE9F0470F46050028
:1009500061D0434E306800F00700B84209D23068D9
:1009600020F0070038433060306800F00700B842DC
:1009700051D128683B4C810712D5400703D56068E8
:1009800040F4E06060602878000703D5606840F4B8
:10099000605060606068A96820F0F0000843606003
:1009A0002878C00728D06868012810D0216802285C
:1009B00010D0890700292EDA616821F00301014374
:1009C0006160FFF7A9FD804641F288390DE021689A
:1009D0008903EFE78901EDE7FFF79EFDA0EB080132
:1009E000494502D90320BDE8F0876068696800F0D6
:1009F0000C00B0EB810FEFD1306800F00700B84277
:100A00000BD9306820F0070038433060306800F0C0
:100A10000700B84201D00120E5E72878400705D556
:100A20006068E96820F4E0600843606028780007A7
:100A300006D56068296920F4605040EAC100606012
:100A400000F028F86168084AC1F30311515CC840FE
:100A50000649086006480068FFF706FF0020C2E765
:100A600000200240001002403A1600080C0000204E
:100A7000040000200448054900684968044AC1F39D
:100A80000221515CC84070470C0000200010024059
:100A90004A1600080E4A51680E4801F00C03042B58
:100AA00011D0082B0FD10C48C1F38343C903C05C9C
:100AB0000AD55168084AC1F34041921E515C054A6B
:100AC0005043B0FBF1F070470449484370470000C1
:100AD0000010024000127A002A16000800093D00AA
:100AE0002DE9F84F040070D02078C04DC00749D0E0
:100AF0006868C0F38100012807D06868C0F38100EE
:100B0000022809D16868C00306D52868800339D552
:100B100060680028E7D035E06068B0F5803F0BD012
:100B200010B1B0F5A02F11D0286820F480302860D3
:100B3000286820F4802002E0286840F48030286093
:100B4000606890B1FFF7E8FC06460AE0286840F4C8
:100B500080202860F0E700BFFFF7DEFC801B6428E0
:100B600073D828688003F7D50CE0FFF7D5FC06465C
:100B700005E000BFFFF7D0FC801B6428F0D8286890
:100B80008003F7D420789A4E80074FF001094FF088
:100B9000000839D5686810F00C0F07D06868C0F3FA
:100BA0008100022809D16868C00306D4286880073C
:100BB00014D52069012808D110E02069B0B1C6F829
:100BC0000090FFF7A9FC074605E00AE1FFF7A4FC47
:100BD000C01B0228C4D828688007F7D52868616937
:100BE00020F0F80040EAC10028600DE0C6F800805F
:100BF000FFF792FC074604E0FFF78EFCC01B0228BB
:100C000023D828688007F7D4207800072CD57948A6
:100C1000A169D9B1C0F80090FFF77EFC074604E057
:100C2000FFF77AFCC01B02280FD8686A8007F7D547
:100C300071484FF4FA510068B0FBF1F0009000BF2A
:100C40000098411E0091FAD20EE080E0C0F80080CA
:100C5000FFF762FC074604E0FFF75EFCC01B0228BA
:100C600075D8686A8007F7D42078400760D5E869AE
:100C70000027C00008D4E86940F08050E861E869C6
:100C8000012700F0805000905C480168C90513D42A
:100C90000168834641F480710160FFF73DFC8246A4
:100CA00006E000BFFFF738FCA0EB0A0064284ED82E
:100CB000DBF80000C005F5D5E06801280AD008B1CE
:100CC000052813D0286A20F001002862286A20F045
:100CD000040002E0286A40F001002862E06841F266
:100CE000883B98B1FFF718FC82460BE0286A40F079
:100CF00004002862EEE700BFFFF70EFCA0EB0A013C
:100D000059455AD8286A8007F6D50CE0FFF704FC4D
:100D1000824605E0FFF700FCA0EB0A0159454CD8DC
:100D2000286A8007F6D41FB1E86920F08050E86196
:100D3000E06988B36968C1F38101022944D00228BF
:100D4000C6F8608004D0FFF7E7FB044638E034E0E3
:100D5000FFF7E2FB074604E0FFF7DEFBC01B0228BB
:100D60002BD828688001F7D4206AB0F5803F05D1E0
:100D70006868A16820F4003008436860D4E908017D
:100D80000843696821F4741108436860C6F86090EC
:100D9000FFF7C2FB044606E025E000BFFFF7BCFBFF
:100DA000001B022809D828688001F7D51BE000BF86
:100DB000FFF7B2FB001B022802D90320BDE8F88F21
:100DC00028688001F4D40EE00128F7D06868226A10
:100DD00000F48031914204D1616A00F470108842BD
:100DE00001D00120EAE70020E8E7000000100240FF
:100DF00000004242800442420C000020007000408B
:100E000010B5401EB0F1807F01D3012010BD4FF01E
:100E1000E02460610F21601700F0D7FB0020A06183
:100E200007202061002010BDFEE701684A69D24317
:100E300052050FD46FF480624A61002140F8301FE0
:100E4000202242738173026942F00402026101733D
:100E50000120704700207047F8B50446C06A1E465E
:100E60000D461746082807D0012805D010F5803F09
:100E700002D0206B122804D12068016841F48071EF
:100E80000160134600224FF001112046009600F049
:100E90005DF840B120680068C00502D54FF40070CD
:100EA00020640320F8BD2069B0F5804F0ED00620E5
:100EB000216800EAD51040F0F000086133463A4658
:100EC0000B49204600F08AF878B902E005F0FE00F0
:100ED00000E0E8B221680861054933463A46891FB7
:100EE000204600F07BF80028DCD00120F8BD00008F
:100EF0000800010070B516460D4604461EE0204667
:100F0000FFF793FF08B1012070BD681C16D0FFF7F2
:100F100003FB801BA84200D885B920684069C04304
:100F200040070BD5002044F8300F20216173A073D7
:100F3000216941F0200121612073E4E720684069C4
:100F4000C0434007DBD4002070BD00002DE9F0470E
:100F5000984617460D460446C1F30746DDF8209033
:100F60002AE000BFB8F1FF3F26D0FFF7D5FAA0EB8B
:100F70000901414502D8B8F1000F1DD12068012EAA
:100F800016D0806925EA00000004000C12D0002071
:100F9000B84211D1002044F8300F20216173A073B2
:100FA000216941F02001216120730120BDE8F08713
:100FB0004069E7E70120EBE72068012E0AD080694D
:100FC00025EA00000004000C06D00020B842C9D079
:100FD0000020EBE74069F3E70120F7E72DE9F04750
:100FE000984616460D4604464FF000094FF0200A79
:100FF000C1F3074723E020684069C043400515D48A
:101000002068016841F40071016021686FF480601C
:101010004861C4F8309084F83DA084F83E90216C7B
:1010200041F00401216484F83C9021E0701C06D05A
:10103000FFF772FAA0EB0800B04203D816B1012FF7
:101040001FD021E02068012F15D0806925EA00001B
:101050000004000C18D000BF44F8309F84F80DA0A5
:1010600084F80E90216941F02001216184F80C90F0
:101070000120BDE8F087406925EA00000004000C6B
:10108000EAD12068406901E02068806925EA000013
:101090000004000CAFD1ECE770B516460D460446CF
:1010A0001EE02046FFF7C1FE08B1012070BD681C9C
:1010B00016D0FFF731FA801BA84200D885B9206806
:1010C0004069C04300060BD5002044F8300F2021B2
:1010D0006173A073216941F0200121612073E4E76D
:1010E00020684069C0430006DBD4002070BD0000CA
:1010F0000D4808B5816941F020018161816901F0E5
:1011000020010091816941F004018161816901F050
:1011100004010091816941F008018161806900F05A
:101120000800009008BD0000001002400D4810B5F6
:101130000B4901600C49416000214FF480428160FD
:10114000C0E9031241618161C1610162FFF7EAF9FF
:10115000002803D0BDE81040FFF7D9B810BD00004B
:101160000054004010000020801A0600FEE7FEE751
:1011700070B5002400252946204600F05CF80020C8
:1011800000F0DAF96D1CEDB27F2DF4D9641CE4B2E5
:10119000072CEFD970BD10B56420FFF7BBF8AE2067
:1011A00000F09CF9D52000F099F9802000F096F924
:1011B000A82000F093F93F2000F090F9D32000F030
:1011C0008DF9002000F08AF9402000F087F9A12075
:1011D00000F084F9C82000F081F9DA2000F07EF9EF
:1011E000122000F07BF9812000F078F9CF2000F088
:1011F00075F9D92000F072F9F12000F06FF9DB20C9
:1012000000F06CF9302000F069F9A42000F066F9D4
:10121000A62000F063F98D2000F060F9142000F0A2
:101220005DF9AF2000F05AF96420FFF773F8BDE8CC
:101230001040FFF79DBF10B5C0B20C4640F0B000A3
:1012400000F04CF9C4F3031040F0100000F046F930
:1012500004F00F00BDE8104000F040B908B5064B9F
:1012600089B203EB0212A2F50072009280B2102341
:10127000082200F003F808BD521600082DE9FE4FC1
:101280009B46154604004FF0000370D000297ED025
:10129000481EC21700EB527040F3C7020290ABF138
:1012A0000100C7174FF0010E00EB57700EEBE0077F
:1012B0004CE0002046E000BF04EB0009B9F17F0FCD
:1012C0003ED8DDF808C04E1E2CF0070CA6EB0C062D
:1012D00076B202EB030A0096BAF1070F15D82D4E2D
:1012E000DDF8308006EBCA16019616F809C003FB3C
:1012F00005F6804416F80860DDF8008006FA08F666
:101300004CEA060C019E06F809C00AF10106072EF8
:1013100016D8204EDDF8308006EBCA1C03FB05F61C
:101320008044E14416F80860DDF8008099F880C038
:10133000C8F1080826FA08F64CEA060C89F880C0BD
:10134000401C80B2A842B7D35B1C9BB29F42B0DC6A
:1013500001EB0B00801EC11700EB51710EEBE10099
:1013600047B296B2DFF82C90A4F101080DE00EE030
:101370001FFA88F13046FFF75EFF09EBC6102044E4
:10138000294600F0BBF8761CB6B2BE42F0DBBDE8E1
:10139000FE8F0000640000202DE9F74F002484B088
:1013A000904683462546A246DFF828918AE010063B
:1013B0000DD48DF80420641C0BEB0500A4B28DF84D
:1013C00005A000B20599FFF749FF083579E006202E
:1013D000B0EB521F0ED1641CA0B28DF8042018F897
:1013E0000010002973D08DF80510401C84B28DF8D0
:1013F00006A03CE00E20B0EB121F16D1641CA0B278
:101400008DF8042018F80010002960D0401C80B22C
:101410008DF8051018F80010002958D08DF8061026
:10142000401C84B28DF807A021E01E20B0EBD20F43
:101430001FD1641CA0B28DF8042018F800100029F8
:1014400045D0401C80B28DF8051018F80010002916
:101450003DD08DF80610401C81B218F8010000281C
:1014600035D0491C8DF807008CB28DF808A00026F5
:1014700009E0641CA4B225E0384601A9FEF7CCFEC1
:1014800068B1761CB6B206EB860000EB461101EBA4
:101490000900074610A1FEF7BFFE0028ECD106EBBD
:1014A000860000EB461101EB0900401D00900598F5
:1014B000102381B20BEB050080B21A46FFF7DEFE67
:1014C0001035ADB218F80420002A7FF470AF07B0D1
:1014D000BDE8F08F421C0008000000001CB5002190
:1014E00001918DF80500481E0090022301AA782181
:1014F0000148FFF7DBF81CBD100000202DE9FC417E
:10150000064600200190402000240D468DF804007E
:10151000671E0BE0305D8DF80500022301AA7821DB
:1015200004480097FFF7C2F8641CE4B2AC42F1D360
:10153000BDE8FC81100000201CB500210191402174
:101540008DF804108DF805004FF0FF300090022355
:1015500001AA78210148FFF7A9F81CBD100000205E
:1015600070477047FFF766B930B58FB028216846DD
:10157000FEF72AFE14210AA8FEF726FE0121080420
:10158000CDE900100024029402250491CDE9075012
:101590004FF4E01009906846FFF7A2FA08B172B65E
:1015A000FEE70F20CDE90A054FF48060CDE90C403D
:1015B00002210AA80E94FFF7C7F9002801D072B6DD
:1015C000FEE70FB030BD7047FEE70907090E00289F
:1015D00004DB00F1E02080F80014704700F00F00F9
:1015E00000F1E02080F8141D70470000FFF72AF991
:1015F000FFF7BAFFFFF77CFDFFF798FDFFF7CBFD84
:10160000012106A20846FFF7C7FE00210620FFF7CA
:1016100012FEFF20FFF790FFFEE7000048656C6CAC
:101620006F576F726C642100010202030405060704
:1016300008090A0B0C0D0E0F10100000000000002E
:10164000000001020304060708090000000001026F
:101650000304000000000000000000000000000083
:101660000000000000F8000000000000003330001F
:10167000000000160E00160E000000000000000022
:10168000000040C07840C0784000043F04043F049C
:101690000400007088FC08300000001820FF211EA4
:1016A0000000F008F000E018000000211C031E21DB
:1016B0001E0000F00888700000001E212324192756
:1016C0002110000000160E000000000000000000C5
:1016D0000000000000E018040200000000071820CD
:1016E000400000020418E00000000040201807003D
:1016F0000000404080F0804040000202010F0102E3
:101700000200000000F0000000000101011F0101C3
:101710000100000000000000000000B070000000A8
:1017200000000000000000000000000101010101B4
:101730000101000000000000000000303000000047
:10174000000000000000806018040060180601001E
:10175000000000E010080810E000000F102020102A
:101760000F00001010F8000000000020203F202093
:10177000000000700808088870000030282422212A
:1017800030000030088888483000001820202011E0
:101790000E000000C02010F8000000070424243FC1
:1017A000240000F80888880808000019212020116A
:1017B0000E0000E0108888180000000F1120201192
:1017C0000E0000380808C83808000000003F00007C
:1017D00000000070880808887000001C2221212267
:1017E0001C0000E010080810E00000003122221167
:1017F0000F00000000C0C0000000000000303000FA
:101800000000000000C0C0000000000080B07000B8
:1018100000000000804020100800000102040810B1
:1018200020004040404040404000040404040404C0
:10183000040000081020408000000020100804026E
:101840000100007048080808F00000000030360170
:101850000000C030C828E810E0000718272423142F
:101860000B000000C038E0000000203C23020227EB
:10187000382008F8888888700000203F2020201138
:101880000E00C03008080808380007182020201073
:10189000080008F808080810E000203F2020201069
:1018A0000F0008F88888E8081000203F2020232037
:1018B000180008F88888E8081000203F200003007E
:1018C0000000C03008080838000007182020221E39
:1018D000020008F808000008F808203F2101012153
:1018E0003F20000808F8080800000020203F2020C2
:1018F000000000000808F8080800C08080807F0011
:10190000000008F888C028180800203F2001263869
:10191000200008F8080000000000203F20202020C0
:10192000300008F8F800F8F80800203F003F003FBA
:10193000200008F830C00008F808203F20000718F1
:101940003F00E01008080810E0000F1020202010D1
:101950000F0008F808080808F000203F21010101E5
:101960000000E01008080810E0000F182424385088
:101970004F0008F8888888887000203F2000030CFA
:101980003020007088080808380000382021212203
:101990001C00180808F8080818000000203F200064
:1019A000000008F808000008F808001F2020202088
:1019B0001F000878880000C83808000007380E01AA
:1019C0000000F80800F80008F800033C0700073C96
:1019D0000300081868808068180820302C03032C46
:1019E00030200838C800C83808000000203F200018
:1019F000000010080808C8380800203826212020D8
:101A00001800000000FE020202000000007F4040BB
:101A10004000000C30C0000000000000000106384B
:101A2000C00000020202FE000000004040407F00B3
:101A30000000002010080408102000000000000032
:101A40000000000000000000000080808080808096
:101A50008080000204080000000000000000000078
:101A600000000000808080800000001924222222D3
:101A70003F2008F8008080000000003F1120201166
:101A80000E000000008080800000000E1120202049
:101A90001100000000808088F800000E1120201046
:101AA0003F200000808080800000001F2222222230
:101AB0001300008080F0888888180020203F2020B4
:101AC00000000000808080808000006B94949493DC
:101AD000600008F8008080800000203F2100002086
:101AE0003F2000809898000000000020203F202028
:101AF0000000000000809898000000C08080807F77
:101B0000000008F8000080808000203F24022D3073
:101B10002000000808F8000000000020203F2020DE
:101B200000008080808080808000203F20003F2057
:101B3000003F008080008080000000203F210020C6
:101B40003F200000808080800000001F2020202097
:101B50001F00808000808000000080FFA1202011F5
:101B60000E000000008080808000000E112020A068
:101B7000FF80808080008080800020203F21200026
:101B80000100000080808080800000332424242411
:101B90001900008080E0808000000000001F2020ED
:101BA00000008080000000808000001F20202010A6
:101BB0003F20808080000080808000010E30080679
:101BC000010080800080008080800F300C030C308A
:101BD0000F0000808000808080000020312E0E31B8
:101BE0002000808080000080808080818E701806B8
:101BF000010000808080808080000021302C222124
:101C0000300000000000807C020200000000003F65
:101C1000404000000000FF00000000000000FF0046
:101C200000000002027C800000000040403F0000F5
:101C300000000080404080000080000000000001A3
:101C40000100EFBC8C00000000000000000000005C
:101C500000000000000000000058380000000000F4
:101C600000000000000000E380820000000000008F
:101C70000000000000000000000000000000182428
:101C8000241800000000000000000000E4BDA000D7
:101C900000008060F8074020180F08C808082818BE
:101CA00000010000FF00100C0340807F00010618B7
:101CB00000E5A5BD00001010F01F10F0008082822A
:101CC000E2928A868000402215081661000040805A
:101CD0007F0000000000E4B8960000202020FE20D5
:101CE00020FF202020FF20202020000000007F4037
:101CF0004047444444474040400000E7958C000082
:101D0000000000FE929292FE929292FE000000006D
:101D100008080484621E010001FE02040408080091
:101D20000000000000FF0101013109090909897162
:101D300001010101FFFF808080808080968180808A
:101D400080808080FF000000681D000800000020E7
:101D50001000000028010008781D00081000002075
:101D6000B80A000044010008010000001000000053
:081D70000000000000127A00DF
:04000005080000ED02
:00000001FF
